:020000040800F2
:10000000C83C002099010008E9480008E3320008D4
:1000100001470008451100083554000800000000A1
:1000200000000000000000000000000001010008C6
:10003000A31100080000000045010008794E0008E7
:10004000B3010008B3010008B3010008B3010008C0
:10005000B3010008B3010008B3010008B3010008B0
:10006000B3010008B3010008B3010008B3010008A0
:10007000B3010008B3010008491100085511000838
:10008000611100086D110008B3010008B3010008F8
:10009000B3010008B3010008B3010008B301000870
:1000A000B3010008F54E0008B3010008B3010008D1
:1000B0004D4F0008B3010008B3010008F1320008F9
:1000C000E5320008B3010008B3010008B3010008DD
:1000D000B30100081D54000829540008B3010008AA
:1000E000B3010008B3010008B3010008DFF80CD029
:1000F00000F06AFD0048004711630008C83C00207A
:10010000224B19680868B0E8F00F80F30988BFF344
:100110006F8F4FF0000080F311884EF00D0E704786
:100120000000000006480068006880F3088862B696
:1001300061B6BFF34F8FBFF36F8F00DF00BF00BF0B
:1001400008ED00E0EFF30980BFF36F8F0F4B1A68E3
:1001500020E9F00F106008B54FF0500080F31188CF
:10016000BFF34F8FBFF36F8F07F0BEF94FF0000062
:1001700080F31188BDE8084019680868B0E8F00FFE
:1001800080F30988BFF36F8F704700BF78010020AC
:10019000EFF3058070470000064880470648004797
:1001A000FEE7FEE7FEE7FEE7FEE7FEE7FEE7FEE727
:1001B000FEE7FEE7F14E0008ED000008202A04DB10
:1001C000203A21FA02F00021704721FA02F3D040D0
:1001D000C2F12002914008431946704740EA0103EA
:1001E0009B0703D009E008C9121F08C0042AFAD2ED
:1001F00003E011F8013B00F8013B521EF9D27047B1
:10020000D2B201E000F8012B491EFBD27047002258
:10021000F6E710B513460A4604461946FFF7F0FF05
:10022000204610BD421C10F8011B0029FBD1801A8A
:10023000704710B5002200E0521C835C8C5CA34226
:1002400001D1002BF8D1D8B2E1B2401A10BD03465B
:1002500011F8012B00F8012B002AF9D1184670473C
:1002600070B50F4D00B92868002412E00A4602E07C
:100270009E4203D0521C1378002BF9D1DAB22243EC
:1002800005D02BB124B1002100F8011B04E0044685
:10029000401C0678002EE9D12860204670BD000081
:1002A0000002002070B5064605F020F904680546F6
:1002B0000A220021304600F0A3FB2C6070BDF0B490
:1002C00080EA0102D40F4200B2EB410F02D2024693
:1002D000084611464A0042D0C30DDDB2C1F3C752F1
:1002E000AD1A202D35DAC1F3160141F4000204B134
:1002F0005242C5F1200602FA06F12A411044B3EB3E
:10030000D05F23D0C4B1012DA0EBC35009DCF0BCF9
:100310004FF0004202EAC352DBB200F5000000F0E9
:10032000B0BB400000F1807000EBC350A0F18070C2
:1003300040EAD170490009E0490841EAC071A0EBE8
:10034000C35000F50000400800EBC350F0BC00F0C3
:100350008FBB6142012202EB4101001BF6E7F0BCBA
:10036000704781F00041AAE780F00040A7E780EAEB
:10037000010210B502F00043400022D04A001FD015
:10038000010E01EB1261C0F35600C2F3560240F4B5
:10039000000042F40002A0FB022000047F39140494
:1003A00000D0401C50EA124001D44000491EC2B2A5
:1003B0000C0604EBD010401C4008802A02D003E059
:1003C000002010BD20F00100002900DA00201843B1
:1003D00010BD30B480EA010202F0004530F0004266
:1003E00021F0004013D090B1C30DD40DC2F316011B
:1003F000C0F31600E41A41F4000140F400027D3419
:10040000914201D3641C00E04900002C02DA30BCA8
:10041000002070474FF400000023914201D3891A55
:10042000034340084FEA4101F7D151B1914202D153
:100430004FF0004105E002D24FF0010101E06FF002
:10044000010103EBC450284430BC00F011BB420052
:1004500005D0C0F3C7525242914201DC00207047E0
:1004600000EBC15070472DE9FE4F804681EA030042
:10047000C00F0C46009021F0004123F00045B8EB7E
:100480000200A94105D24046214690461C460B4633
:10049000024623F00040104347D0270DC7F30A005F
:1004A000C3F30A510290401A019040286BDAC3F35B
:1004B000130040F4801B0098924620B10023D2EB39
:1004C000030A63EB0B0B01985946C0F140025046FA
:1004D00000F027FA06460D4650465946019A00F0AC
:1004E0002FFA10EB08006141002487EA115284EAD8
:1004F000E7731A4340D0009A62B3019A012A4FEA87
:10050000075215DC001B61EB02014FF0004202EACA
:100510000752CDE90042001C41F5801132462B46BE
:1005200000F0ECFA03B0BDE8F08F40462146F9E751
:10053000001B61EB0201001C41F5801300185B41B8
:100540002018A2F5001747EB030140EAD570B61951
:100550006D4111E06D084FEA360645EAC0754FEA75
:100560000752001B61EB0201001C41F58011490894
:100570004FEA30000019514132462B4603B0BDE826
:10058000F04F00F0ACBA0098012240000023D0EBFD
:10059000020263EBE073009821464FEAE074B8EB87
:1005A000000061EB0401E9E783F000435BE781F0C1
:1005B000004158E72DE9FE4F81EA030404F00044AE
:1005C00021F0004100944FF0000B23F0004350EA6B
:1005D00001045ED052EA03045BD0C3F30A54C1F3B2
:1005E0000A552C44A4F2F3340194A0FB0254C1F345
:1005F000130141F48011C3F3130343F4801301FB8F
:10060000024400FB034E840A970A44EA815447EAF5
:100610008357A4FB076802958D0A05FB07854FEAFF
:10062000932C04FB0C542705029D4FEA065847EA19
:100630001637B5EB08056EEB070C870E920E47EAEE
:10064000811742EA8312A7FB0201B6EB0B0164EBB0
:1006500000042B0D43EA0C335E1844EB1C50DA46C1
:100660005146E7FB0201C5F313044FEA0B3343EA9B
:1006700014534FEA0432019C43EA0603A4F10C042C
:100680000294009CCDE900B400F038FA03B0BDE854
:10069000F08F00200146F9E72DE9F04D81EA0304CF
:1006A00004F0004B21F0004514464FF0000A23F0FF
:1006B000004150EA050220D054EA01021DD0C5F3E2
:1006C0000A570246C5F31303C1F31300C1F30A56D8
:1006D00040F4801543F48013A7EB0608101BD646A0
:1006E00008F2FD3873EB050002D308F1010801E0C0
:1006F00092185B41B8F1000F03DA00200146BDE813
:10070000F08D00204FF48011064684460EE0171B42
:1007100073EB050705D3121B63EB050306434CEA95
:10072000010C49084FEA300092185B4150EA01077A
:10073000EDD152EA030012D082EA040083EA0501F7
:10074000084305D0101BAB4106D20122002306E06E
:1007500000224FF0004302E06FF0010253101AEB49
:1007600006004CEB085110EB0A0041EB0B01BDE811
:10077000F04D00F0B4B9C10F80EAE0700844CA0738
:100780009623002100F07DB90EB5C10F80EAE0701C
:100790000844CA07002140F233438DE80E000A46A0
:1007A0000B4600F0ABF903B000BD00F0004220F0B2
:1007B0000040C10DC0F3160040F400007F2901DAAB
:1007C00000207047962903DCC1F19601C84001E082
:1007D00096398840002AF4D04042704700F0004229
:1007E00030F000400AD0C10D01F56071C0F3160071
:1007F00042EA0151C20840071143704700200146F8
:100800007047000030B5041E71F1000404DB4FF0A6
:100810000044404264EB0101141E73F1000405DB47
:100820001C464FF00043524263EB0403994208BF59
:10083000904230BD01F0004330B421F0004150EA55
:10084000010206D00A0DA2F56072C1F31301002A5D
:1008500002DC30BC00207047440F44EAC104C100F0
:10086000E01830BC00EBC25000F002B9002801DBF8
:10087000C0F10040002901DBC1F100418142704715
:10088000002801DBC0F10040002901DBC1F100417B
:100890008842704730B50B460146002020220124D3
:1008A00009E021FA02F59D4205D303FA02F5491B3E
:1008B00004FA02F52844151EA2F10102F1DC30BD54
:1008C0002DE9F05F0546002092469B468846064685
:1008D000814640241BE02846414647462246FFF712
:1008E0006DFC53465A46C01A914110D31146184622
:1008F000224600F016F82D1A67EB01084F462246F3
:100900000120002100F00DF817EB00094E41201ED8
:10091000A4F10104DFDC484631462A464346BDE8DF
:10092000F09F202A04DB203A00FA02F100207047F1
:100930009140C2F1200320FA03F31943904070471D
:10094000202A06DBCB17203A41FA02F043EAE07393
:1009500006E041FA02F3D040C2F120029140084380
:10096000194670470FB4002300B589B00CA9009157
:100970000B996FF00042CB601E4B06931E4B079302
:100980000423CDE901321D4A089202466B4600203D
:1009900000F0CEF909B05DF814FB70B586B00646DC
:1009A0004FF0FF300091CDE90101002015460C46C3
:1009B00004903246694604A8FFF7D4FF0246049823
:1009C000211825B108B1084600E0204628600498A7
:1009D00000280DD0002A02DD0098884208D0081BAC
:1009E0000094CDE901043246694604A8FFF7BAFF36
:1009F00006B070BD690F0008870F0008F50B0008EE
:100A00002DE9F04791460F4680460446002614F82B
:100A1000015B2DB100F0EAF80068405DC007F6D137
:100A20002B2D02D02D2D18D0641E4A463946204663
:100A300000F0BAFA27B13968A14201D1C7F80080A5
:100A400071054FF002040BD54042002803DD04F08D
:100A50004DFD0460A007BDE8F08746F48066E4E73A
:100A60000028F8DA04F042FD04606FF00040F2E77D
:100A70000029A8BF7047401C490008BF20F00100B2
:100A8000704710B4B0FA80FC00FA0CF050EA010490
:100A900004BF10BC704749B1CCF1200421FA04F422
:100AA00011FA0CF118BF012121430843A3EB0C01FB
:100AB000CB1D4FEA00614FEA102042BF002010BC5E
:100AC000704700EBC35010440029A4BF10BC70470E
:100AD000401C490008BF20F0010010BC704710B551
:100AE000141E73F1000408DA401C41F10001921851
:100AF0005B411A4301D120F0010010BD2DE9F04DFA
:100B000092469B4611B1B1FA81F202E0B0FA80F24E
:100B100020329046FFF705FF04460F4640EA0A00E0
:100B200041EA0B0153465A46084313D0114653EA93
:100B3000010019D0C8F140025046FFF73FFB0546BF
:100B40000E46504659464246FFF7EBFE084305D095
:100B5000012004E020463946BDE8F08D0020054321
:100B600046EAE0762C4337430A986305E40AA0EB93
:100B700008000022FD0A44EA47540A3002D500204A
:100B80000146E9E7010510196941DDE90845001949
:100B90006941BDE8F04DA2E7C1F30A52C1F3130168
:100BA00040F2FF3341F480119A4202DA00200146FC
:100BB000704740F233439A42A2F2334202DC52427F
:100BC000FFF7FCBAFFF7ADBE064C074D06E0E06844
:100BD00040F0010394E8070098471034AC42F6D384
:100BE000FFF788FA58940008789400080048704786
:100BF0001494000810B50446FFF7F8FF0068005D84
:100C000000F0010010BD00002DE9FF4F087883B00F
:100C10009946FF2805D0491C2D2804D00024002027
:100C200008E000200BE00124F9E700EB800003EB73
:100C30004000491C0B78FF2BF7D104B14042002340
:100C40000293147819461D462D2C01D02B2C04D16B
:100C5000521C2D2C13D000240294AA461478FF2C89
:100C60000FD00A25A3FB057801FB05814FF0000C8E
:100C700003FB0C11521CE3194AEB0101EEE70124BE
:100C8000EAE7814453EA010002D019F5C87F06DA89
:100C900003980021C0E9001107B0BDE8F08F0025DE
:100CA000AE4E2F46DFF8B882184600F0F1F9CDE9D4
:100CB0000001B9F1000002DAC9F1000400E00446C5
:100CC0000023A74A1AEB030B42EB045A12E0E00799
:100CD00007D02A46334638464146FFF76BFC0746A5
:100CE00088462A46334610461946FFF763FC0546F8
:100CF0000E466410002CEAD1DDE90001B9F1000FC5
:100D00005A46534606DAFFF7C7FC3A464346FFF712
:100D1000C3FC05E0FFF74EFC3A464346FFF74AFCAA
:100D2000029A0AB181F00041039AC2E90001B3E7D7
:100D30002DE9FF4F1F468DB0D7E901464FF0FF3830
:100D40002E2045464FF000090B90B9696D1C0E9896
:100D50008847396A824688470028F6D1BAF1FF3FB2
:100D60000AD024F4D064002E11DDBAF12B0F08D084
:100D7000BAF12D0F0BD102E0404611B08DE744F4DB
:100D80008064B9696D1C0E9888478246761E694654
:100D9000600501D52D2000E02B208DF8000001F129
:100DA000010B0DF1200809E0B9696D1C0E98884708
:100DB00082460F9844F40074761E0560002E02DD12
:100DC000BAF1300FF0D00B998A453ED144F080043F
:100DD00006E00F99681CA9F1010944F40074086049
:100DE000B9696D1C761E0E98884782463028F0D06F
:100DF0002BE00B998A4505D1200603D444F08004EA
:100E0000761E18E0504604F0B5FC08B30DF113014E
:100E1000761E44F400748B4508D2AAF130000BF81A
:100E2000010B200607D5A9F1010003E0200602D43A
:100E300009F101008146A00502D50F99681C0860E0
:100E4000B9696D1C0E9888478246002ED1DC53E0AC
:100E5000002E51DDBAF1650F02D0BAF1450F4BD12A
:100E6000A00549D5B9696D1C24F44074761E0E980E
:100E700088478246002E0CDD2B2804D0BAF12D0FB6
:100E800007D144F48074B9696D1C0E988847824676
:100E9000761EE00501D52D2100E02B2108F8011B6D
:100EA000CDF82C8021E00DF12901761E44F4007468
:100EB00088450CD2AAF1300010F0FF0088F800003D
:100EC00002D10B99884509D908F1010806E0E0052F
:100ED00001D5244801E042F20F708146B9696D1CCA
:100EE0000E98884782460F980560002E04DD504614
:100EF00004F040FC0028D6D1F9690E988847FF20FD
:100F00008BF8000088F800000020069007904B4600
:100F10006A4608A906A8FFF777FEA00502D46FF07D
:100F200001002AE714F0240F0AD0E00714D1DDE90C
:100F300006123868031D3B600068C0E900120BE030
:100F4000DDE90601FFF776FC0146E00704D13868C9
:100F5000021D3A600068016028460EE70000144058
:100F60000000F03FF1D8FFFF426842B1016811F87C
:100F7000013B23B1521EC0E90012184670470121FF
:100F8000C160881E704742685AB1C368016843B99E
:100F900083688B4205D0491E521CC0E90012002014
:100FA00070474FF0FF3070472DE9F05F82460078C0
:100FB000002715468B460AF10104B946302801D0B6
:100FC0009DB113E014F8010B0127782803D05828AD
:100FD00001D045B10AE00DB1102D07D10027102531
:100FE00014F8010B02E0082500E00A250026B046AF
:100FF0000EE005FB080005FB06F1012701EB10469A
:101000001FFA80F8B6F5803F00D3B94614F8010BFB
:10101000294600F02FF80028EBDABBF1000F05D0CD
:101020000FB1641E00E05446CBF80040B9F1000F48
:1010300006D004F05BFA02210160C81EBDE8F09FF3
:1010400048EA0640FAE770B521F0004303430CD0AC
:10105000C1F30A550024D5EB040564EB0403D6174D
:10106000AD1AB34102DB0020014670BD201841EBF0
:10107000025170BD3A2800D2303820F02002412AB7
:1010800001D3A2F13700884201D34FF0FF307047FF
:101090000EB540F2334202920022CDE900221346FF
:1010A000FFF72CFD03B000BD70B58C1810F8015B84
:1010B00015F0070301D110F8013B2A1106D110F8F1
:1010C000012B03E010F8016B01F8016B5B1EF9D1F5
:1010D0002B0705D40023521E0DD401F8013BFAE77B
:1010E00010F8013BCB1A921C03E013F8015B01F8E6
:1010F000015B521EF9D5A142D8D3002070BD00007B
:1011000001220249024802F045B800001F010020F8
:101110008C0E00200FB4094810B503AA029904F000
:10112000AFF90648FFF77EF882B24FF0FF3303496C
:10113000034802F085F810BC5DF814FB7004002031
:101140008C0E0020FEE70000014800F0CBB8000044
:10115000180F0020014800F0C5B80000D40E002090
:10116000014800F0BFB80000280D0020014800F041
:10117000B9B800005C0F002030B590F84050012451
:10118000AC40C56B6C60046863604368102B0368F7
:1011900003D099600068C26030BD9A600068C16089
:1011A00030BD70470021012803D0022803D0002061
:1011B0007047044800E004480268506A516200B277
:1011C00070470000B40D0020FC0D002010B53C213C
:1011D000044801F0CBFBBDE810403C21024801F07F
:1011E000C5BB0000B40D0020FC0D002072B6FEE768
:1011F0000148406870470000001000E010B590F80A
:1012000021100022022905D00421816380F82020CA
:10121000012010BD01680B6823F00E030B6001680C
:101220000B6823F001030B6090F84030C46B012180
:1012300001FA03F3636080F8211080F82020104643
:1012400010BD000010B590F821100024022903D031
:101250000421816301243DE001680A6822F00E0246
:101260000A6001680A6822F001020A601A4A0168ED
:10127000914201D1012121E0174A1432914201D15A
:1012800010211BE0144A2832914201D1891515E042
:10129000114A3C32914201D189140FE00E4A50327A
:1012A000914202D14FF4803108E00B4A64329142FE
:1012B00002D14FF4801101E04FF08071064A083AE4
:1012C0005160012180F82110002180F82010416B2D
:1012D00001B18847204610BD0800024090F8210067
:1012E000704700002DE9F05FC16B0C6801680B6866
:1012F000D0F840C0042202FA0CF2494DDFF824A1D4
:10130000494E4A4FDFF828B1DFF828E122422CD0BD
:101310005A072AD50A68920603D40A6822F0040202
:101320000A600168A94201D1042219E0514501D1A6
:10133000402215E0B14202D14FF4806210E0B94280
:1013400002D14FF480420BE0594502D14FF4802284
:1013500006E0714502D14FF4800201E04FF0806257
:101360002F4908394A60C16A3BE04FF0020808FA89
:101370000CF818EA040F4FF000094FF0010235D0C5
:101380005FEA837832D50B689B0605D40B6823F09F
:101390000A030B6080F821200168A94201D10222D2
:1013A00019E0514501D1202215E0B14202D14FF49C
:1013B000007210E0B94202D14FF400520BE05945DF
:1013C00002D14FF4003206E0714502D14FF4001211
:1013D00001E04FF00072124908394A6080F820900D
:1013E000816A00291AD0BDE8F05F0847082505FA90
:1013F0000CF5254212D01B0710D50B6823F00E0305
:101400000B6090F84010C36B02FA01F159608263DF
:1014100080F8212080F82090016BE2E7BDE8F09F82
:10142000080002401C00024030000240440002401C
:10143000580002406C00024030B528B308C8134978
:1014400014221944B1FBF2F18900C1631049816390
:10145000022141771A6843F6F0718A43D0E90014FB
:101460002143D0E902452C432143046921434469C7
:101470002143846921431143196000214163012202
:1014800042770177084630BD012030BDF8FFFDBF2F
:101490000000024070B5044690F8200000250128A5
:1014A0000CD0012084F8200094F821600020012E47
:1014B00006D084F820000225284670BD022070BDA9
:1014C000022684F82160A0632068066826F00106E1
:1014D00006602046FFF750FEE06A00282068016899
:1014E00002D041F00E0106E021F004010160206805
:1014F000016841F00A0101602068016841F00101C2
:101500000160D9E770B5044600F008F90546601C93
:1015100002D004480078044400F000F9401BA042C7
:10152000FAD370BD680100202DE9F84FDFF8B891BB
:101530000024A9F1040B23460F2709F1040AABF19B
:10154000040EC9E00125A5402A40AA427DD1674E7C
:10155000D1F804C0ACEB0608B44532D014DCBCF1C1
:10156000030F3AD009DCBCF1000F2AD0BCF1010F07
:101570001CD0BCF1020F31D11DE0BCF1110F17D00E
:10158000BCF1120F2AD119E0B8F5881F19D006DC7A
:10159000B8F5803F15D0B8F5801F1FD111E0B8F520
:1015A000001F0ED0B8F5041F18D10AE0CB6815E073
:1015B000CB681B1D12E0CB6808330FE0CB680C33FF
:1015C0000CE08B682BB1012B4FF0080303D0456171
:1015D00004E0042302E0056100E00023FF2A01D8B3
:1015E000064601E000F104064FEA840501D9A5F1A1
:1015F0002005D6F8008007FA05FC28EA0C0803FA53
:1016000005F548EA0508C6F800804D68ED0062D58A
:10161000374DAE6946F00106AE61AD6924F00306B0
:1016200005F001050095334D06EB050CDCF808507C
:10163000A607360F07FA06F825EA0805DFF8B8808E
:10164000404503D14FF0000817E044E0DFF8AC80DC
:10165000404502D14FF001080FE0DFF8A48040457B
:1016600002D14FF0020808E0DFF89880404502D12F
:101670004FF0030801E04FF0040808FA06F848EAC2
:101680000508CCF808804D68D9F80060ED024D4699
:1016900001D5164300E096432E604D68DAF80060ED
:1016A000AD02554601D5164300E096432E604D68C5
:1016B000DBF80060AD035D4601D5164300E09643BC
:1016C0002E604D68DEF80060ED03754601D51643C7
:1016D00000E096432E60641C0D682A46E5407FF4C6
:1016E00031AFBDE8F88F0000080401400000111080
:1016F000001002400000014000080140000C0140C1
:1017000000100140001401408068084000D0012012
:1017100070470AB1016170470904FBE7014880681E
:101720007047000068010020704770472DE9F041C4
:10173000016804464A694E6890F83E000025D74388
:10174000FA050BD4F243D20508D46FF48072012558
:101750004A6121680A6842F400420A60B90508D467
:10176000F143C90505D422686FF4007145F0020504
:101770005161790525D4F143C90522D4638D94F8CC
:101780003D10226B202808D13BB9212910D02929EE
:101790000ED0282901D1212A0AD022686FF4806155
:1017A000516145F00405102806D0402804D008E017
:1017B000204602F0B3FA04E02068016841F40071A9
:1017C0000160380508D4F043C00505D421686FF4E2
:1017D000006045F008054861002D07D0206C2843C3
:1017E00020642046BDE8F04101F092BEBDE8F081E2
:1017F0002DE9F047026800215368C66A90F83E4020
:1018000090F83D50102C12D0402C10D0046C002CBD
:101810007DD05469E443A6077AD4DE43B60577D475
:10182000036C03B19169BDE8F04702F053BA9769C0
:1018300051694FF42A0CC9435FEAC1784FF02A4935
:1018400004D066452AD04E4528D010E0DE43B605C8
:101850000DD4C16A614501D1012103E0C16A494546
:1018600001D10821C162BDE8F04702F045B90E0779
:1018700016D4DE43B60513D4416CC9B21161416B75
:1018800009B1896A29B9816B002907D0896A0029C1
:1018900004D00068416841F400614160BDE8F08710
:1018A0008E0706D4DE43B60503D4BDE8F04702F048
:1018B00077B8FE43526876074FEA02521DD4002AD9
:1018C000ECDB0A0608D4DA43520505D4490705D5EE
:1018D000BDE8F04702F008B84907DFD4D9438905CD
:1018E000DCD4212D05D0402CD8D1BDE8F04702F042
:1018F00049B9BDE8F04701F0B5BF002ACEDB4A0682
:101900000BD4DA43520508D4490708D501E00DE0AD
:101910000EE0BDE8F04701F02BBF4907BED4D94324
:101920008905BBD4BDE8F04701F0B5BE916970E709
:10193000E10606D4D943890503D4BDE8F04702F097
:1019400035BA2821212D27D0292D25D0650655D43B
:10195000DD436D0552D4640752D590F83D30448D77
:10196000002C9BD01269446A2270426A521C426267
:10197000428D521E4285428D002A8FD12A2B8DD155
:101980000268536823F4806353602222026380F864
:101990003D1000F0E7FA81E7250623D4DD436D050D
:1019A00020D4640720D590F83D30448D002CF2D02F
:1019B000446A24781461426A521C4262428D521E6B
:1019C0004285428D002AE6D1292BE4D10268536872
:1019D00023F4806353602122026380F83D1000F0FD
:1019E000C2FA5BE76107D6D4D9438905D3D4418DC8
:1019F0000029D0D0416A097811610AE06107CAD490
:101A0000D9438905C7D4418D0029C4D01169426AE0
:101A10001170416A491C4162418D491E41853DE773
:101A200000680349884202D10249002008707047CB
:101A3000005400402801002070B5040025D094F81F
:101A40003D00002520B984F83C50204600F028FADB
:101A5000242084F83D002068016821F00101016024
:101A60002068016841F4004101602068016821F4A8
:101A70000041016000F0F2FB4D4A6168914201D8DB
:101A80004C4900E04C49884201D2012070BD4B49CD
:101A90002368B0FBF1F15E6826F03F060E435E60FE
:101AA0006368934206D94FF4967359434FF47A739F
:101AB000B1FBF3F12368491C1E6A26F03F0631434F
:101AC00019626168914210D84900401EB0FBF1F2E2
:101AD000521CC2F30B02042A01D2042022E0B0FB04
:101AE000F1F0401CC0F30B001CE0A268F2B301EB64
:101AF000C10303EB0116431EB3FBF6F35B1C43F477
:101B000080431B0549D092B301EBC10202EB0111E6
:101B1000401EB0FBF1F0401CC0F30B0040F48040CD
:101B200040F400402168CA694CF6FF739A431043A1
:101B3000C861D4E9071001432068026822F0C0029E
:101B400011430160D4E9030101432068826848F22F
:101B5000FF339A4311438160D4E9050108432168AA
:101B6000CA6822F0FF021043C86001E00EE016E0F0
:101B70002068016841F0010101602564202084F89B
:101B80003D00256384F83E50002070BD01EB410606
:101B9000431EB3FBF6F35B1CB3E70120C2E701EB86
:101BA0004101401EB0FBF1F0401CC0F30B00B7E751
:101BB000A086010080841E0000093D0040420F0005
:101BC000704770477047704700680349884202D1E8
:101BD000024900200870704700540040280100208E
:101BE0002DE9FF4F83B09A46DDE9119793460446ED
:101BF000DDF84080FFF792FD054694F83D0020286F
:101C00007FD11923012240492046009502F0A8F90E
:101C1000002876D194F83C00012872D0012084F885
:101C20003C0020680168C90703D1016841F0010147
:101C300001602068016821F400610160212084F8BE
:101C40003D00402084F83E0000262664C4F824802D
:101C5000A4F82A90608D20852C48E062CDE90075BB
:101C600053465A462046049901F0E0FF70B930E02F
:101C70002A463946204602F019FA58B1206C042849
:101C800004D12068016841F400710160012007B0AF
:101C9000BDE8F08F606A216800780861606A401CC6
:101CA0006062218D491E89B22185628D521E628536
:101CB00022685369DB435B070BD469B1007810617C
:101CC000606A401C6062208D401E2085608D401E31
:101CD0006085208D0028CBD12A463946204602F067
:101CE00013F90028CAD154F83D0B016841F4007182
:101CF0000160202004F81E09E67766770020C6E719
:101D0000FFE70220C3E70000020010000000FFFF11
:101D10002DE9FC5F0025984691468A460446DDF889
:101D200030B00095FFF7FAFC074694F83D002028F4
:101D300028D1574846F2A81120260068B0FBF1F0E0
:101D400000EBC00101EB001000900098401E0090D5
:101D500010D020688069C0438007F6D594F83C0015
:101D600001280FD0012084F83C0020680168C907D1
:101D70000BD00EE044F8305F6673A573206940F025
:101D8000200020610220BDE8FC9F016841F00101B4
:101D900001602068016821F400610160212084F85D
:101DA0003D00402084F83E002564C4F824B00D981E
:101DB0006085608D20853748E062C4F844A0C4F88F
:101DC0004890C4F84C802565208DE8B3606BF0B175
:101DD00031498162616B31480863606BC562606B39
:101DE00045632268238D1032616A606BFFF752FBF6
:101DF000B0B184F83D6084F83E5054F8400F40F094
:101E0000100000BF44F8040925700120BBE784F8E6
:101E10003D6084F83E5054F8400F40F08000F1E7F8
:101E20002320CDE9000743464A465146204601F0AB
:101E3000FDFE98B1606BFFF705FA606B8562206864
:101E4000016821F4806100E019E001602585658565
:101E50002068016821F001010160D6E7206841692E
:101E60008169009184F83C50416841F4807141607F
:101E70002068416841F400614160002083E784F8F4
:101E80003D6084F83E5054F8400F40F04000B9E700
:101E9000740100200000FFFFEF330008B933000891
:101EA00070B586B00025064600950195029503950C
:101EB00000682649884247D1254CA06940F00800B7
:101EC000A061A069694600F0080004904FF44070DA
:101ED000009012200190032003901E48FFF724FB7E
:101EE0001D48416841F0E06141F002014160E06954
:101EF00040F40010E061E069194C00F40010049017
:101F0000164820601020C4E901058020C4E90305BB
:101F100080016561C4E906502046FFF78DFA08B1DB
:101F2000FFF764F97463002206211F20666200F047
:101F3000ADF81F2000F09CF800220521202000F0C1
:101F4000A5F8202000F094F806B070BD00540040C1
:101F500000100240000C0140000001406C000240F3
:101F6000280D0020704770470248816802781144AC
:101F70008160704768010020074810B5016841F092
:101F800010010160032000F0A1F8052000F006F820
:101F900000F04AF8002010BD0020024030B5054690
:101FA0001C4887B0816941F400618161806906A99C
:101FB00000F40060009001A800F030F900F05EF934
:101FC0001549164AB0FBF1F11548491E02604160FF
:101FD00040F2E7320021C0E903218160816100F015
:101FE00049FB040012D10E4800F08EFB04000DD115
:101FF000192000F03DF8102D07D2002229461920A3
:1020000000F044F80748056000E0012407B02046CE
:1020100030BD00000010024040420F00002C014083
:10202000A00F00206C0100200F4808B5816941F025
:1020300001018161816901F001010091C16941F0F3
:102040008051C161C069002200F0805000900F21D2
:10205000901E00F01BF80548416821F0E06141F056
:102060000071416008BD0000001002400000014006
:10207000002809DB00F01F02012191404009800087
:1020800000F1E020C0F8001170470000F0B40E4BE2
:102090001B680C46C3F30223C3F10705042D00D9C6
:1020A0000425191D072901D2002300E0DB1E0126AB
:1020B00006FA05F1491E214099409E40761E1640C1
:1020C0003143F0BC03F002BA0CED00E0064900F029
:1020D000070208684FF6FF03184040EA0220034A4F
:1020E00010430860704700000CED00E00000FA05A6
:1020F0002DE9F0470F46050061D0434E306800F0EF
:102100000700B84209D2306820F007003843306039
:10211000306800F00700B84251D128683B4C810775
:1021200012D5400703D5606840F4E060606028780D
:10213000000703D5606840F4605060606068A9687B
:1021400020F0F000084360602878C00728D0686855
:10215000012810D02168022810D0890700292EDA22
:10216000616821F0030101436160FFF7D7FA8046FF
:1021700041F288390DE021688903EFE78901EDE735
:10218000FFF7CCFAA0EB0801494502D90320BDE8CE
:10219000F0876068696800F00C00B0EB810FEFD148
:1021A000306800F00700B8420BD9306820F0070013
:1021B00038433060306800F00700B84201D0012099
:1021C000E5E72878400705D56068E96820F4E06015
:1021D000084360602878000706D56068296920F404
:1021E000605040EAC100606000F058F86168084A39
:1021F000C1F30311515CC8400649086006480068F5
:10220000FFF7CCFE0020C2E7002002400010024091
:10221000D2920008740100206C0100200F2202609D
:102220000C4A536803F003034360536803F0F00360
:102230008360536803F4E063C36052684FF4E06363
:1022400003EAD20202610448006800F00700086057
:102250007047000000100240002002400448054979
:1022600000684968044AC1F30221515CC8407047C4
:102270007401002000100240E29200080448054961
:1022800000684968044AC1F3C221515CC8407047E4
:102290007401002000100240E29200080E4A5168CA
:1022A0000E4801F00C03042B11D0082B0FD10C4861
:1022B000C1F38343C903C05C0AD55168084AC1F31E
:1022C0004041921E515C054A5043B0FBF1F070470B
:1022D00004494843704700000010024000127A0091
:1022E000C292000800093D002DE9F84F040070D0AB
:1022F0002078C04DC00749D06868C0F3810001282C
:1023000007D06868C0F38100022809D16868C0035B
:1023100006D52868800339D560680028E7D035E005
:102320006068B0F5803F0BD010B1B0F5A02F11D090
:10233000286820F480302860286820F4802002E09B
:10234000286840F480302860606890B1FFF7E6F9B3
:1023500006460AE0286840F480202860F0E700BFC5
:10236000FFF7DCF9801B642873D828688003F7D551
:102370000CE0FFF7D3F9064605E000BFFFF7CEF902
:10238000801B6428F0D828688003F7D420789A4E00
:1023900080074FF001094FF0000839D5686810F048
:1023A0000C0F07D06868C0F38100022809D1686863
:1023B000C00306D42868800714D52069012808D1F5
:1023C00010E02069B0B1C6F80090FFF7A7F9074602
:1023D00005E00AE1FFF7A2F9C01B0228C4D828686B
:1023E0008007F7D52868616920F0F80040EAC1004D
:1023F00028600DE0C6F80080FFF790F9074604E07A
:10240000FFF78CF9C01B022823D828688007F7D46F
:10241000207800072CD57948A169D9B1C0F800907F
:10242000FFF77CF9074604E0FFF778F9C01B0228A4
:102430000FD8686A8007F7D571484FF4FA510068E1
:10244000B0FBF1F0009000BF0098411E0091FAD25D
:102450000EE080E0C0F80080FFF760F9074604E076
:10246000FFF75CF9C01B022875D8686A8007F7D4AB
:102470002078400760D5E8690027C00008D4E869E3
:1024800040F08050E861E869012700F0805000903A
:102490005C480168C90513D40168834641F4807122
:1024A0000160FFF73BF9824606E000BFFFF736F90F
:1024B000A0EB0A0064284ED8DBF80000C005F5D573
:1024C000E06801280AD008B1052813D0286A20F056
:1024D00001002862286A20F0040002E0286A40F027
:1024E00001002862E06841F2883B98B1FFF716F9D5
:1024F00082460BE0286A40F004002862EEE700BF45
:10250000FFF70CF9A0EB0A0159455AD8286A800751
:10251000F6D50CE0FFF702F9824605E0FFF7FEF87A
:10252000A0EB0A0159454CD8286A8007F6D41FB1A0
:10253000E86920F08050E861E06988B36968C1F318
:102540008101022944D00228C6F8608004D0FFF738
:10255000E5F8044638E034E0FFF7E0F8074604E029
:10256000FFF7DCF8C01B02282BD828688001F7D4BD
:10257000206AB0F5803F05D16868A16820F400307A
:1025800008436860D4E908010843696821F47411BC
:1025900008436860C6F86090FFF7C0F8044606E09C
:1025A00025E000BFFFF7BAF8001B022809D8286809
:1025B0008001F7D51BE000BFFFF7B0F8001B022831
:1025C00002D90320BDE8F88F28688001F4D40EE01A
:1025D0000128F7D06868226A00F48031914204D162
:1025E000616A00F47010884201D00120EAE70020FF
:1025F000E8E700000010024000004242800442422E
:1026000074010020007000407047704770B590F86A
:102610003C20012A26D0012480F83C40022280F888
:102620003D2003685A689D6822F070060A683243AC
:102630005A600D4B02689A4208D0B2F1804F05D023
:102640000A4B9A4202D00A4B9A4204D1496825F0BB
:1026500080031943916080F83D40002180F83C10D0
:10266000084670BD022070BD002C014000040040EF
:102670000008004010B5040003D094F83D0010B1EC
:1026800007E0012010BD002084F83C00204600F047
:102690001FF8022084F83D00211D206802F05CFC38
:1026A000012084F8460084F83E0084F83F0084F856
:1026B000400084F8410084F8420084F8430084F824
:1026C000440084F8450084F83D00002010BD00005F
:1026D00008B50068B0F1804F12D10A48C16941F0D5
:1026E0000101C161C069002200F0010000900521D4
:1026F0001C20FFF7CBFCBDE808401C20FFF7B8BC4E
:1027000008BD00000010024090F83D10012901D0E2
:1027100001207047022180F83D100168CA6842F02C
:102720000102CA6000680B49884208D0B0F1804FAE
:1027300005D00949884202D00849884204D18168FD
:1027400001F00701062903D0016841F00101016091
:1027500000207047002C01400004004000080040A9
:1027600070B5044690F83C000025012817D00126DA
:1027700084F83C60022084F83D002068826822F0E2
:10278000770222F47F4282600868502838D00DDC3E
:1027900020284FD005DC90B3102811D14AE0022048
:1027A00070BD302846D040280AD13BE060282FD0A9
:1027B00070280DD0B0F5805F03D0B0F5005F12D067
:1027C000012584F83D60002084F83C00284670BD57
:1027D000CB68D1E90121206802F007FC20688168FC
:1027E00041F0770109E0CB68D1E90121206802F0CE
:1027F000FCFB2068816841F480418160E1E719E0D9
:10280000CA684968206802F0A5FC5021206806E0EB
:10281000CA684968206802F0AEFC6021206802F0B6
:10282000EEFBCEE7CA684968206802F093FC4021BD
:102830002068F4E7226801461046F0E72DE9F041F0
:102840000D46040003D094F83D0018B108E00120C3
:10285000BDE8F081002084F83C00204600F040F8FC
:10286000022084F83D002068816844F20702914309
:102870008160211D206802F06FFB226890689169D9
:10288000166A2B68AF69034340F20330814341EA83
:102890000721A868EF6908434FF6FC418843E968BF
:1028A00040EA0720014328692F6A000140EA073007
:1028B000084369686D6926F0220646EA0515294332
:1028C00093602268906154F8460B0162012004F87D
:1028D0001F09E0752076E0762077A0750020B7E725
:1028E00000B585B0002100910191029103911A4B2E
:1028F00002681A48C0219A4213D1C26942F002020A
:10290000C261C26902F002020492826942F00402CA
:1029100082618069009100F00400049069461048CB
:1029200015E0104B9A4214D1C26942F00402C26110
:10293000C26902F004020492826942F008028261D4
:102940008069009100F00800049069460648FEF78F
:10295000EBFD05B000BD0000000400400010024087
:102960000008014000080040000C014070B590F8DC
:102970003E60044690F83F5090F8423090F8432073
:10298000022021B104290ED0012E1BD114E0012E0A
:1029900018D1012B16D184F83E0084F842000122A0
:1029A0000021206820E0012D0CD1012A0AD184F8F1
:1029B0003F0084F8430014E0012D03D1012B01D125
:1029C000012A01D0012070BD84F83E0084F83F0048
:1029D00084F8420084F8430001220021206802F0BC
:1029E000F7FA01220421206802F0F2FA2068016857
:1029F00041F001010160002070BD70472DE9F041F8
:102A000004460068C66805694FF00007A90713D59A
:102A1000B10711D5F91E0161012020772068806976
:102A20008007204602D0FFF7E8FF04E000F0A2F89C
:102A3000204600F034F92777680716D5700714D5BB
:102A400021686FF004000861022020772068806907
:102A500010F4407F204602D0FFF7CFFF04E000F0E3
:102A600089F8204600F01BF92777280715D530078D
:102A700013D521686FF008000861042020772068D2
:102A8000C0698007204602D0FFF7B7FF04E000F0DE
:102A900071F8204600F003F92777E80616D5F0060E
:102AA00014D521686FF01000086108202077206895
:102AB000C06910F4407F204602D0FFF79EFF04E07B
:102AC00000F058F8204600F0EAF82777E80708D029
:102AD000F00706D021686FF001000861204600F081
:102AE0002DF9280608D5300606D521686FF080003C
:102AF00008612046FFF788FD680608D5700606D5F0
:102B000021686FF040000861204600F021F9A80616
:102B10000AD5B00608D521686FF02000086120466C
:102B2000BDE8F041FFF771BDBDE8F08100B585B0AB
:102B3000002100910191029103910068B0F1804F52
:102B400011D10A48816941F00401816180696946B7
:102B500000F00400049003200090022001900390F4
:102B60000348FEF7E1FC05B000BD00000010024084
:102B700000080140704770B5044690F83C000026FC
:102B80000D4601280FD0012084F83C006AB1042AC8
:102B90001DD0082A2FD00C2A3FD00126002084F80F
:102BA0003C00304670BD022070BD206802F030FA53
:102BB0002068816941F0080181612068816921F004
:102BC00004018161206881692A69114311E020684C
:102BD00002F046FA2068816941F400618161206851
:102BE000816921F480618161206881692A6941EAF3
:102BF00002218161D2E7206802F05EFA2068C16993
:102C000041F00801C1612068C16921F00401C1617E
:102C10002068C1692A69114311E0206802F078FA3E
:102C20002068C16941F40061C1612068C16921F473
:102C30008061C1612068C1692A6941EA0221C161DC
:102C4000ACE710B5040003D094F83D0010B107E0E4
:102C5000012010BD002084F83C00204600F01EF842
:102C6000022084F83D00211D206802F075F9012042
:102C700084F8460084F83E0084F83F0084F8400061
:102C800084F8410084F8420084F8430084F844004A
:102C900084F8450084F83D00002010BD704770475F
:102CA00010B50446022249B104290ED0082913D0D8
:102CB00094F84100012816D0012010BD94F83E0080
:102CC0000128F9D184F83E200FE094F83F00012854
:102CD000F2D184F83F2008E094F840000128EBD1BD
:102CE00084F8402001E084F841200122206802F0AD
:102CF0006FF90F492068884203D1426C42F40042C8
:102D000042642068884208D0B0F1804F05D009495C
:102D1000884202D00849884204D1816801F0070145
:102D2000062903D0016841F001010160002010BDB7
:102D3000002C0140000400400008004000680349E6
:102D4000884201D1FFF710B970470000002C014004
:102D50007047704770470000F8B50168044608687E
:102D6000CA684B6910F00F0F4FF0000559D003F0FF
:102D7000010602F49077374365D0C10705D0D1052D
:102D800003D5616C41F001016164410705D5D907A4
:102D900003D0616C41F002016164810705D5D90758
:102DA00003D0616C41F004016164010707D502F0B2
:102DB0002001314303D0616C41F008016164616C12
:102DC00000293AD0800604D5900602D5204602F0AC
:102DD00013FA20684069616CC0F38010090700D4C1
:102DE00060B3204602F0E1F920684069400621D531
:102DF0002068143050E8001F21F0400140E8001224
:102E0000002AF5D1E06BA8B16D494163E06BFEF794
:102E100019FA002811D0E06B416B01B0BDE8F04019
:102E2000084783060FD593060DD52046BDE8F84028
:102E300002F0E2B92046FFF78DFFF8BD2046FFF70C
:102E400089FF6564F8BD266B2023012E7CD1C60660
:102E50007AD5D60678D508684868009048694FF05A
:102E60000206400640D5E16B086840680004000C8B
:102E7000E8D0A28D8242E5D9E085886920282DD04E
:102E800020680C3050E8001F21F4807140E80012E7
:102E9000002AF5D12068143050E8001F21F001010C
:102EA00040E80012002AF5D12068143050E8001FD5
:102EB00021F0400140E80012002AF5D184F84230A8
:102EC000256320680C3050E8001F21F0100140E815
:102ED0000012002AF5D1E06BFEF790F96663A08D31
:102EE000E18D401A81B22AE0A08DE18D401A81B2B5
:102EF000E08D0028A6D00029A4D022680C3252E828
:102F0000000F20F4907042E80007002FF5D12068F0
:102F1000143050E8002F22F0010240E80027002F73
:102F2000F5D184F84230256320680C3050E8002F3A
:102F300022F0100240E80023002BF5D16663204602
:102F4000FFF707FFF8BDFFE705062BD5150629D5C6
:102F500094F841002128F5D1A068B0F5805F01D137
:102F60002069B0B1206A411C216221680078486064
:102F7000E08C401E0004000CE084E3D12068C168AE
:102F800021F08001C1602068C16841F04001C1604A
:102F9000D8E7206A0088C0F308004860206A801CD7
:102FA0002062E5E74006CDD55006CBD5CA6820465D
:102FB00022F04002CA6084F8413000F091F9C1E784
:102FC0009B51000870B5040004D094F8410000251E
:102FD00010B106E0012070BD84F84050204600F09A
:102FE00023F8242084F841002068C16821F40051AE
:102FF000C160204602F062F92068016921F4904125
:1030000001612068416921F02A0141612068C1689D
:1030100041F40051C1606564202084F8410084F8C7
:1030200042006563002070BD2DE9F04385B00024A7
:1030300000940194029403940646DFF840C10368AB
:103040004F48022103224F4D80274FF010084FF4C4
:10305000805963454ED1836943F48043836183691A
:1030600003F480430493836943F00403836180691C
:10307000039200F0040004900802CDE900016946C3
:103080002846FEF751FA2815CDE90004694628467E
:103090000294FEF749FA3D4D3B48C5E90004C5E9F5
:1030A000024720202C61C5E905400002E86128465E
:1030B000FEF7C2F908B1FEF799F8F5636E62334D79
:1030C000314844351438C5E902472C616C61C5E9C3
:1030D0000008C5E906492846FEF7AEF908B1FEF733
:1030E00085F8B5630022062125206E62FEF7CEFF2B
:1030F00025203DE0DFF898C063453BD1C36943F428
:103100000033C361C36903F400330493836943F05C
:10311000040383618069039200F00400049004209A
:10312000CDE9000169462846FEF7FEF90820CDE901
:103130000004694628460294FEF7F6F9134D12483A
:1031400088352830C5E902472C616C61C5E9000863
:10315000C5E906492846FEF76FF908B1FEF746F8BB
:10316000B5630022062126206E62FEF78FFF26201F
:10317000FEF77EFF05B0BDE8F08300000038014097
:10318000001002400008014058000240D40E002008
:103190000044004090F84230202B01D002207047BC
:1031A00021B11AB10023036302F0E4B80120704793
:1031B00030B41B4A016801241A4891421ED1C278DA
:1031C0000178002311B1012907D00EE05B2A0CD150
:1031D000817851B90470437007E01249124D5D2A9D
:1031E000497807D06A54491C41700E490122C91C14
:1031F0000E480FE003706B548470F6E70C4A91425E
:103200000BD10C490079012208700B480549047064
:103210000A48091D30BCFFF7BDBF30BC7047000035
:10322000004400401C0100200C0400208C0E0020F3
:10323000003801403401002035010020440E0020F8
:103240002DE9F843044690F84100984616460D468D
:10325000202802D00220BDE8F88385B17EB100208D
:103260006064212084F84100FEF758FAA684814664
:10327000E684A0682027B0F5805F02D003E001203B
:10328000E9E7206910B12E4600250EE000260CE08B
:103290008021204602F089F8A8B9C6B116F8010BC2
:1032A00021684860E08C401EE084E08C4B464FF083
:1032B0000002CDF800800028EAD14FF040012046FE
:1032C00002F073F840B184F841700320C3E735F889
:1032D000020BC0F30800E3E784F841700020BAE76E
:1032E0007047FEE70148FEF721BA0000D40C002029
:1032F0000148FEF77DBA0000D40C002038B5406AC2
:10330000002190F83D202B4B46F2A8141B68B3FB1C
:10331000F4F3C3EBC30303EB830300933BB15B1EE6
:10332000009303681B689B0505D5009BF6E7036CBB
:1033300043F020030364436B03B19962836B03B1D1
:10334000996203681C6824F480641C604185436BA7
:1033500003B15963836B03B1596303681C6824F09C
:1033600001041C6090F83D402023602C0BD02824E1
:1033700034EA02020FD080F83D3080F83E1000BFE2
:10338000FEF74EFB38BD80F83D3080F83E100164FA
:10339000FEF7CAF938BD0268136843F001031360F1
:1033A0000268136843F480631360016380F83D4052
:1033B000E6E700007401002010B5406A0021426B6E
:1033C00002B19162826B02B191620268136823F4C8
:1033D000806313604185202280F83D2080F83E10F4
:1033E000016C41F010010164FEF71AFB10BD2DE9DC
:1033F000F041446A94F83D2094F83E50E16A206818
:10340000436823F440734360636B002003B1986208
:10341000A36B03B19862212333EA02074FF022061F
:103420000CD036EA020701D1202D07D094F83E20B7
:10343000002A21D0628D012A20D024E021684D6825
:1034400025F400654D6060852820292A02D02A2AAB
:1034500007D00CE0236384F83D002046FEF783FD8F
:1034600005E0266384F83D002046FEF77BFD2068DA
:10347000416841F440714160BDE8F0812268136801
:1034800023F4806313602268536823F4407353600D
:1034900011F5803F06D0082904D0B1F12A4F01D0A0
:1034A000202904D12268136843F400731360226852
:1034B000536823F4805353602268536823F40063F5
:1034C00053606085226C1AB12046FEF7A9FAD3E753
:1034D000202284F83D2094F83E2084F83E00402AC3
:1034E00009D0082902D0202900D0122020632046CC
:1034F000FEF767FBC0E720632046FEF764FBBBE7EF
:1035000000684169C943090601D40021016170477F
:1035100070B5044690F83D0094F83E10102901D093
:10352000402906D1222804D121680A6822F40062C9
:103530000A60282131EA00024FF000054FF0200612
:1035400026D021684968090505D4602803D084F88D
:103550003D6084F83E50256320684168090537D5F1
:10356000416821F400614160606B90F821203C4982
:10357000012A11D04163606BFDF764FE38B3206807
:10358000016821F00101016084F83D60606B1CE07E
:10359000256384F83D10DFE7A06B4163A06BFDF766
:1035A00051FEA0B120684169C943490605D40069AC
:1035B000616A0870606A401C60622068016821F0DE
:1035C0000101016084F83D60A06B416B884710E009
:1035D00094F83D10602910D04169C943490605D4CB
:1035E0000069616A0870606A401C60622046FEF7EC
:1035F00017FA206CC1071CD115E084F83D602564E2
:103600004169C943490605D40069616A0870606A66
:10361000401C60622068016821F0010101602046C1
:10362000FEF782F8E5E7810703D4410701D40007DC
:1036300004D52068416821F4E061416094F83D00C0
:10364000216C49070BD5282809D10648E06225637B
:1036500084F83D6084F83E502046FEF7B1FA70BD14
:10366000FD3200080000FFFF01684A69D24352059D
:103670000FD46FF480624A61002140F8301F20228D
:1036800042738173026942F00402026101730120F6
:1036900070470020704710B5C26A438D0168042B43
:1036A00006D0438D032B08D0438D022B1DD012E092
:1036B0004A6822F480624A600CE04B6823F480631D
:1036C0004B60042A06D0022A04D001680A6822F45A
:1036D00080620A6001680969426A1170416A491C86
:1036E0004162418D491E418510BD012A34D0102A06
:1036F00032D0042A34D0022A32D00B6843F400734B
:103700000B6001680969436A1970416A491C41628A
:10371000438D5B1E438503681B690B70416A491C1E
:103720004162418D491E418501684B6823F4407315
:103730004B60202180F83D1090F83E300021402B56
:1037400080F83E1010D0082A02D0202A00D0122182
:103750000163FEF736FA10BD0B6823F48063CFE7F0
:103760000B6843F48063CBE70163FEF72CFA10BDCE
:1037700038B590F83D10222910D1C36A418D032934
:103780000DD901680969426A1170416A491C416298
:10379000418D491E4185418D032906D038BDC26A3D
:1037A000022A02D0012906D029B10068416821F41B
:1037B0008061416038BD2A4A46F2A814002112688F
:1037C000B2FBF4F202EB8202009202682024009D18
:1037D0006D1E009526D01568AD05F8D4156825F442
:1037E000806515600268556825F4E06555600268DB
:1037F0001269456A2A70426A521C4262428D521E08
:10380000428580F83D4090F83E2080F83E10402AE6
:1038100021D0082B02D0202B00D012210163FEF70B
:10382000D0F938BD036C43F020030364536823F4DC
:10383000E063536002681269436A1A70426A521C5C
:103840004262428D521E428580F83D4080F83E1013
:10385000FEF7E6F838BD0163FEF7B5F938BD0000A4
:103860007401002010B5C26A90F83D1021290BD1D7
:10387000418D51B1416A026809781161416A491C60
:103880004162418D491E418510BD20230021082A37
:1038900013D0202A11D012F5803F0ED00268546850
:1038A00024F4E06454601122026380F83E1080F832
:1038B0003D3000BFFEF786F910BD0268546824F45D
:1038C000E06454600268146844F400741460016396
:1038D00080F83D3090F83E2080F83E10402AE9D133
:1038E000FEF772F910BD000010B590F83D1090F889
:1038F0003E30C26A048DB4B1212903D0402B11D1CE
:1039000022290FD1418DE1B390F83E10402942D0D9
:10391000416A026809781161416A491C4162418D1E
:10392000491E418510BD2129E8D120230021082A04
:1039300013D0202A11D012F5803F0ED002685468AF
:1039400024F4E06454601122026380F83E1080F891
:103950003D3000BFFEF736F910BD0268546824F40C
:10396000E06454600268146844F4007414600163F5
:1039700080F83D3090F83E2080F83E10402AE9D192
:1039800000E002E0FEF720F910BD0068416821F474
:103990008061416010BDBDE8104000F0F3B8000048
:1039A00078B590F83E50C26A046B90F83D600023F1
:1039B0000168222E73D1066D0EB9402D6FD0056DB2
:1039C0001DB90569B5F5404F1BD0458D95B3468DA2
:1039D000484D012E20D0448D022C4DD00C6844F46B
:1039E00080640C6001684C68240579D5AA4273D0C4
:1039F000012A71D0082A6FD0102A6DD0202A6BD0EE
:103A00006EE04A698A6900920A6842F480720A602C
:103A1000016D491C016578BDAA4214D10A6822F4DF
:103A200080620A6001684A68120504D50A6822F4B7
:103A3000806217E0FFE74A698A6900920A6842F4E7
:103A400000720A6050E0082A10D0202A0ED0122CF2
:103A50000AD0042A03D0022A01D0102AE6D10A682B
:103A600042F480620A603BE0012ADFD00A6822F457
:103A700080620A600168DEE7042A11D0022A0FD0B2
:103A8000102A0DD00C6844F400640C6001684C6985
:103A90008C6900940C6824F480640C6008E025E0D4
:103AA0000C6844F480640C6001684C698969009179
:103AB00001684C68240517D5AA4207D0012A05D011
:103AC000082A03D0102A01D0202A0DD14A6842F4D6
:103AD00080524A6008E0FFE74A6842F480524A6038
:103AE00001684A6989690091036578BD48698869F8
:103AF000009078BD0000FFFF90F83E10402910D0E4
:103B00000169B1F5804F19D0016DA9B3016D01298B
:103B100010D1416C5FF0F10201F4407142EAD11121
:103B200006E0016D0029416C05D0C9B241F00101E8
:103B300000680161704701F0FE01F9E790F83D105F
:103B40002129416C09D0C9B241F00101026811611B
:103B5000416B29B1896A49B902E001F0FE01F5E73C
:103B6000816B0029E6D0896A0029E3D000684168AA
:103B700041F4006141607047FFE7416CF02201F4BD
:103B80004071CBE710B590F83D10026D4AB1026D5F
:103B9000012A14D0026D022A16D0BDE81040FFF7AA
:103BA000AFBCC16C0129816C02D0C1F3072108E0D0
:103BB0000268C9B21161016D891C016510BD816C7B
:103BC000C9B20268116123E022291CD0428D0AB1DA
:103BD000212920D0428D002AF0D12129EED101687F
:103BE0004A6822F4E0624A6001680A6842F400729E
:103BF0000A6000210163202280F83D2080F83E10F9
:103C0000FDF7E2FF10BD01680A6842F480720A60A5
:103C1000016D491CD1E7416A026809781161416A66
:103C2000491C4162418D491E418510BD2DE9F84373
:103C3000044600680D46DDE9089701689846164677
:103C400041F4807101604B4600224FF00111204683
:103C5000009700F085F948B120680068C00502D5DA
:103C60004FF4007020640320BDE8F883216805F05C
:103C7000FE0008613B464A461549204600F0B8F967
:103C800088B920684169806900903A4649462046D3
:103C900000F00CFA48B1206C042804D120680168B7
:103CA00041F4007101600120DEE7F5B2B8F1010FC7
:103CB00009D02168300A08613A464946204600F09A
:103CC000F5F90028E7D1206805610020CCE7000065
:103CD0000200010038B50C4690F83D20002128254F
:103CE000954302680B4605D051699169009180F8AF
:103CF0003C3038BD556825F480655560E243540773
:103D000000D50121120601D5828900E0028B80F8DE
:103D10003C3092B2FDF709FD38BD00002DE9F041BD
:103D200090F83D300446C26A002120261E4F0068EC
:103D30006FF48065082A01D0202A01D1282B04D0F5
:103D4000212B17D04561BDE8F081E762426822F47B
:103D5000E0624260206845612068026822F4806267
:103D60000260216384F83D6084F83E102046FDF730
:103D700027FFE8E7E7622122226384F83D6084F8A8
:103D80003E10416821F4E06141602068456120688F
:103D9000016821F4806101602046FFF7B1FB2046F5
:103DA000FEF7E1F8CFE700000000FFFFF8B590F85C
:103DB0003D6004460068416821F4E061416020688C
:103DC000002541690091016841F00101016020680E
:103DD000016821F48061016020684168090520D5EF
:103DE000474F222E48D02A2E46D0616B0968496879
:103DF0006185618D19B1216C41F004012164416834
:103E000021F400614160606BFDF768FA012808D079
:103E1000606B4763606BFDF715FA10B1606B416B27
:103E20008847608D08B320684169C943490708D4B1
:103E30000069616A0870606A401C6062608D401EA3
:103E4000608520684169C943490608D40069616AF0
:103E50000870606A401C6062608D401E6085608DE5
:103E600018B1206C40F004002064206C00B32046A0
:103E7000BDE8F840FFF74CBBA16B09684968618554
:103E8000618D19B1216C41F004012164416821F474
:103E900000614160A06BFDF721FA0128C1D0A06B41
:103EA0004763A06BFDF7CEF90028BAD0A06BB6E748
:103EB0002A2E06D12563282084F83D002046FEF7EF
:103EC00051F894F83D10202028290DD0216B22298B
:103ED00001D0222E07D1256384F83D0084F83E509E
:103EE0002046FEF73FF8F8BD0649E162256384F8F5
:103EF0003D0084F83E502046FDF762FEF8BD00000C
:103F0000FD3200080000FFFF70B516460D4604465E
:103F10001EE02046FFF7A8FB08B1012070BD681C19
:103F200016D0FDF7FBFB801BA84200D885B920689E
:103F30004069C04340070BD5002044F8300F2021D2
:103F40006173A073216941F0200121612073E4E7CE
:103F500020684069C0434007DBD4002070BD0000EA
:103F60002DE9F047984617460D460446C1F307462B
:103F7000DDF820902AE000BFB8F1FF3F26D0FDF722
:103F8000CDFBA0EB0901414502D8B8F1000F1DD1CE
:103F90002068012E16D0806925EA00000004000C7C
:103FA00012D00020B84211D1002044F8300F202157
:103FB0006173A073216941F0200121612073012008
:103FC000BDE8F0874069E7E70120EBE72068012EB4
:103FD0000AD0806925EA00000004000C06D0002009
:103FE000B842C9D00020EBE74069F3E70120F7E7CA
:103FF0002DE9F047984616460D4604464FF0000955
:104000004FF0200AC1F3074723E020684069C0430E
:10401000400515D42068016841F4007101602168F1
:104020006FF480604861C4F8309084F83DA084F853
:104030003E90216C41F00401216484F83C9021E021
:10404000701C06D0FDF76AFBA0EB0800B04203D855
:1040500016B1012F1FD021E02068012F15D08069F3
:1040600025EA00000004000C18D000BF44F8309F7F
:1040700084F80DA084F80E90216941F0200121619F
:1040800084F80C900120BDE8F087406925EA000023
:104090000004000CEAD12068406901E020688069D2
:1040A00025EA00000004000CAFD1ECE770B516461D
:1040B0000D4604461EE02046FFF7D6FA08B101205F
:1040C00070BD681C16D0FDF729FB801BA84200D8E4
:1040D00085B920684069C04300060BD5002044F82C
:1040E000300F20216173A073216941F0200121610B
:1040F0002073E4E720684069C0430006DBD4002059
:1041000070BD00000349C878002801D00022CA70A1
:10411000704700002101002010B5104C02212046FC
:10412000FDF7F2FA88B101212046FDF7EDFA70B1F2
:104130000B4C20212046FDF7E7FA50B11021204614
:10414000FDF7E2FA38B1002010BD012010BD0220B9
:1041500010BD032010BD042010BD0000000C014064
:10416000000801407047000010B50A4C2078401C40
:10417000C0B2207014280CD3002020706078A0708A
:10418000FFF7CAFF6070002803D1A078002800D094
:10419000E07010BD21010020704700000122510392
:1041A0000148FDF7B6BA00000010014000224FF4AC
:1041B00000510148FDF7ADBA001001402DE9FF475D
:1041C0001546DDE90C890E4607461C460E22694657
:1041D0003B2000F039F8BDF8000040BA3880BDF847
:1041E000020040BA3080BDF8040040BA2880BDF813
:1041F000080040BA2080BDF80A0040BAA8F80000C4
:10420000BDF80C0040BAA9F80000BDE8FF8710B562
:1042100000F0CCFA01216B2000F044F800216C2062
:1042200000F040F80721192000F03CF800211A2086
:1042300000F038F818211B2000F034F81821BDE8F0
:1042400010401C2000F02EB82DE9F04115460E4616
:10425000044600F00DFBD02000F0F6FA00F0C0FAA2
:10426000204600F0F1FA00F0BBFA00F001FBD1208B
:1042700000F0EAFA00F0B4FA00246F1E0CE000BF70
:1042800000F0BDFA3055BC4201DA002000E0012008
:1042900000F0CFFA641CE4B2AC42F1D3BDE8F041C7
:1042A00000F0F5BA70B50D46044600F0E1FAD020F2
:1042B00000F0CAFA00F094FA204600F0C5FA00F0C7
:1042C0008FFA284600F0C0FA00F08AFABDE8704084
:1042D00000F0DDBA154808B5416941F001014161BE
:1042E0004069002200F00100009005210E20FDF73A
:1042F000CDFE0E20FDF7BCFE002205210F20FDF7AC
:10430000C5FE0F20FDF7B4FE002206211020FDF7A8
:10431000BDFE1020FDF7ACFE002205211120FDF7A7
:10432000B5FEBDE808401120FDF7A2BE0010024016
:1043300010B501211D4A084602F04EF81C4C1B4ADC
:10434000022120611832012002F046F8174A60610C
:1043500030320421012002F03FF8144AA061903A63
:104360000021144802F064F8104A20606C3A0021E1
:10437000114802F05DF80D4A6060483A00210F488C
:1043800002F056F8094AA060243A00210C4802F0D5
:104390004FF80C4AE060216811600B4A61681160B7
:1043A0000A4AA16811600A49086010BD78920008A5
:1043B00048010020496F0008697100084F6F00082C
:1043C000C57E0008380100203C010020400100208B
:1043D000440100202DE9F04385B0002438480094C2
:1043E000019402940394816941F010018161816913
:1043F00001F010010491816941F02001816181691E
:1044000001F020010491816941F004018161816919
:1044100001F004010491816941F008018161806922
:10442000012200F00800274E55030490294630462B
:10443000FDF76FF9DFF890904FF44067012239469D
:104440004846FDF766F94FF4704800224146484659
:10445000FDF75FF90220CDE902400095012569468C
:1044600001953046FDF760F838018DE83100694666
:104470003046FDF759F830208DE831006946134881
:10448000FDF752F80326009669464846CDE90145F6
:10449000FDF74AF801AA1120009782E85100694609
:1044A0004846FDF741F8CDF800800396CDE9015468
:1044B00069464846FDF738F805B0BDE8F0830000CE
:1044C0000010024000100140000C014000080140B3
:1044D0000D4810B50B4901600C49416000214FF4B3
:1044E00080428160C0E9031241618161C161016262
:1044F000FDF7A2FA002803D0BDE81040FCF776BE15
:1045000010BD000000540040D40C0020801A0600AA
:1045100010B58EB000240794089409940A940B9463
:104520001C2168460C94FBF772FE21484FF0804135
:1045300001602321C0E901146321C0E903148461EF
:10454000FEF798F808B1FCF751FE4FF48050079041
:1045500007A91748FEF704F908B1FCF747FE14480D
:10456000FEF76FFB08B1FCF741FE0B940BA9104856
:104570000C94FEF74BF808B1FCF738FE6020CDE94B
:10458000000402940022694609480494FEF7F3FAF5
:1045900008B1FCF72BFE042269460548FEF7EBFA4A
:1045A00008B1FCF723FE0248FEF7C0FA0EB010BDBA
:1045B0006C0D002010B58CB024216846FBF727FE57
:1045C00000241648099414490A94C0E900144FF6CF
:1045D000FF71C0E90241046184610320CDE9000458
:1045E0000120CDE902040F210491CDE90540CDE978
:1045F000074169460948FEF721F908B1FCF7F6FDC5
:10460000099409A905480A94FEF700F8002801D08A
:10461000FCF7ECFD0CB010BD00040040B40D002010
:1046200010B58CB024216846FBF7F1FD0024174833
:10463000099415490A94C0E900144FF6FF71C0E9C6
:104640000241046184610320CDE9000401200F21AF
:104650000290CDE90341CDE90604022105916946A6
:104660000A480894FEF7EAF808B1FCF7BFFD099480
:1046700009A906480A94FDF7C9FF002801D0FCF7F4
:10468000B5FD0CB010BD000000080040FC0D00207E
:104690000C4810B50A4901604FF4E1314160002136
:1046A00081600C22C160C0E904128161C161FEF722
:1046B00089FC002803D0BDE81040FCF797BD10BD71
:1046C00000380140440E00200C4810B50A49016032
:1046D0004FF416514160002181600C22C160C0E995
:1046E00004128161C161FEF76DFC002803D0BDE8B2
:1046F0001040FCF77BBD10BD004400408C0E002034
:10470000FEE700F083BB00002DE9F0410C46214D8F
:104710006642012810D002283AD141038703002CB9
:1047200028DB00222846FCF7F4FF01223946284600
:10473000FCF7EFFFA0B227E04FF480514F00002CB0
:104740000ADB01222846FCF7E4FF0022394628460E
:10475000FCF7DFFFA0B209E000222846FCF7D9FFF2
:10476000012239462846FCF7D4FFB0B2BDE8F0413B
:1047700000F05ABB01222846FCF7CBFF0022394645
:104780002846FCF7C6FFB0B2BDE8F04100F052BBCE
:10479000BDE8F081000C014008B50120009001E067
:1047A00000BF0846411E0091FAD208BD01224FF415
:1047B00040610148FCF7ADBF000C014010B54FF45B
:1047C00000610648FCF7A0FF012805D05FF0000457
:1047D000FFF7E2FF204610BD0124F9E7000C01407D
:1047E00010B5012000F070F8012000F05DF8FFF72F
:1047F000E5FF0446002000F057F8204610BD70B5D4
:104800000025012000F060F800248026012000F03F
:104810004BF8FFF7D3FF012802D126FA04F0054335
:10482000002000F041F8641CE4B2082CEED32846C6
:1048300070BD10B500F048F8012000F035F8BDE873
:104840001040002000F030B870B5002405468026E6
:1048500026FA04F0284000F037F8012000F024F890
:10486000002000F021F8641CE4B2082CF0D370BDE5
:1048700010B5012000F028F8012000F015F8002004
:1048800000F022F8BDE81040002000F00DB810B58F
:10489000002000F019F8012000F006F8BDE81040F3
:1048A000012000F011B8000010B508B1012200E0AD
:1048B00000224FF480610348FCF72BFFBDE8104055
:1048C000FFF76ABF000C014010B508B1012200E0FB
:1048D00000224FF400610348FCF71BFFBDE81040C5
:1048E000FFF75ABF000C0140FEE70000084810B572
:1048F000002142680B46002000EBC114401CC0B2EE
:1049000013558028F8D3491CC9B20829F3D310BD28
:1049100028010020F0B50B4424E0044685181DE072
:104920007F2C19D8002917DB3F2915DCCE1701EBA6
:10493000567C4FEAEC0604EBC6170C4E2CF0070C25
:10494000A1EB0C0E76684FF0010C3E440CFA0EFC05
:10495000377827EA0C073770641C24B2A542DFDCE5
:10496000491C09B28B42D8DCF0BD000028010020B0
:1049700010B53A4C206940F4001020610A20FCF781
:10498000C1FD206920F400102061FFF7A1FD642023
:10499000FCF7B8FDAE2000F0C9F9D52000F0C6F94B
:1049A000802000F0C3F9A82000F0C0F93F2000F0FB
:1049B000BDF9D32000F0BAF9002000F0B7F940208B
:1049C00000F0B4F9A12000F0B1F9C82000F0AEF970
:1049D000DA2000F0ABF9122000F0A8F9812000F0F5
:1049E000A5F9CF2000F0A2F9D92000F09FF9F1201D
:1049F00000F09CF9DB2000F099F9302000F096F9E6
:104A0000A42000F093F9A62000F090F98D2000F08A
:104A10008DF9142000F08AF9AF2000F087F92020EA
:104A200000F084F9002000F081F9212000F07EF9E7
:104A3000002000F07BF97F2000F078F9222000F0C0
:104A400075F9002000F072F9072000F06FF9FFF708
:104A50004DFFBDE8104000F04BB9000000100240CF
:104A60000FB470B5C0B014460D46064648AA684655
:104A7000479900F005FD23466A462946304600F076
:104A800081F840B070BC5DF814FB000008B5082B3D
:104A90000DD0062B0AD10A4B02EB420203EB420275
:104AA000C03A00920823062200F00EF808BD054B1C
:104AB00003EB0212A2F50072102300920822F3E722
:104AC000A88E0008B88800082DE9F04F1F4616464A
:104AD0000D4683460024FFF71DFF29487F1E4268CC
:104AE000F81707EB5070012101EBE00744E00020CC
:104AF0003EE000BF0BEB0009B9F17F0F36D8E91794
:104B000005EB5171CB1021F00701691A002D03DA72
:104B10005B1E08311BB209B203EB040ABAF1070F9E
:104B20000ED8099B04FB06F8034409EBCA1E18F8CB
:104B3000033012F80EC08B404CEA030C02F80EC092
:104B40000AF10103072B11D8DDF8248009EBC31902
:104B500004FB06F3804412F809C013F80830C1F1D1
:104B60000801CB404CEA030C02F809C0401CC0B25B
:104B7000B042BFD3641CE4B2A742B8DCBDE8F08FFA
:104B8000280100202DE9FF4F002483B09B4690466A
:104B90002546A246DFF850919EE0100610D40398F7
:104BA0008DF80420641C2844A4B28DF805A000B23E
:104BB0005B460499FFF76AFF05EB0B0085B28BE0BB
:104BC0000620B0EB521F0ED1641CA0B28DF8042059
:104BD00018F80010002974D08DF80510401C84B21C
:104BE0008DF806A03CE00E20B0EB121F16D1641C1D
:104BF000A0B28DF8042018F80010002971D0401CD4
:104C000080B28DF8051018F80010002969D08DF8D1
:104C10000610401C84B28DF807A021E01E20B0EBE6
:104C2000D20F1FD1641CA0B28DF8042018F8001018
:104C3000002956D0401C80B28DF8051018F80010DD
:104C400000294ED0401C80B28DF8061018F80010D4
:104C5000002946D0401C8DF8071084B28DF808A0BA
:104C6000002609E0641CA4B236E0384601A9FBF72F
:104C7000E0FA68B1761CB6B206EB860000EB46118E
:104C800001EB0900074619A1FBF7D3FA0028ECD184
:104C9000BBF1080F03D0BBF1060F1DD112E006EBEC
:104CA000860000EB461101EB0900401D00900398BF
:104CB0001023284400B21A460499FFF705FF103567
:104CC00009E00EE003980623284400B23F2204992D
:104CD000FFF7DCFEAD1DADB218F80420002A7FF40A
:104CE0005CAF07B0BDE8F08FE29000080000000064
:104CF0001CB50C4C2078002812D1D4E90101C4E97C
:104D00000110012121708902CDE900010123402217
:104D100078210548FCF7FCFF002801D00020207016
:104D20001CBD000028010020D40C002001B584B077
:104D300001214FF0FF3204A88DE807000B46002246
:104D400078210248FCF74CFF05B000BDD40C0020D0
:104D50000021016041608160C160C1610162416206
:104D6000704770B50446C0692062D4E90001FBF7C2
:104D7000F8FA0146E061606910F0FF400FD0606A08
:104D8000FBF79DFA6062A16AFBF77AFD01D2A06A87
:104D90006062E16A606AFBF769FD01D2E06A606205
:104DA000D4E90101FBF7DDFAA169FBF7E0FA05465A
:104DB000616A6069FBF7DBFA0646E1692069FBF787
:104DC000D6FA3146FBF77BFA2946FBF7CAFAE060D0
:104DD000B0F5000F03DBA16BFBF771FA05E010F1F2
:104DE000FF4F03D3A16BFBF7BCFAE060216BFBF72D
:104DF00047FD01D2206BE060616BE068FBF736FD98
:104E000001D2606BE0606068A06070BD10B50021E9
:104E10000448FDF745FFBDE8104004210148FDF7B7
:104E20003FBF00006C0D00200149096848637047CE
:104E30006C0D002001490968886370476C0D0020E3
:104E4000012202490248FEF7A5B900002001002016
:104E5000440E00200648016841F080710160054859
:104E600000214160016841F00101016070470000CC
:104E7000FCED00E0001000E010B54FF0E02000690C
:104E800003F064FB012803D0BDE8104003F072B8C2
:104E900010BD30B58FB028216846FBF7B8F9142152
:104EA0000AA8FBF7B4F901210804CDE90010002499
:104EB000029402250491CDE907504FF4E0100990C7
:104EC0006846FDF711FA08B172B6FEE70F20CDE98A
:104ED0000A054FF48060CDE90C4002210AA80E9427
:104EE000FDF706F9002801D072B6FEE70FB030BD1D
:104EF0007047000038B51148FDF780FD104C208840
:104F0000401C2080FFF730F92088052814D30020AA
:104F1000208000900B48006800280DD0694602F000
:104F200009FA0098002807D007494FF08050086020
:104F3000BFF34F8FBFF36F8F38BD0000A00F00206D
:104F4000640100203801002004ED00E00148FDF775
:104F500055BD00006C0D0020F0B50268194B1A4CCD
:104F60001A4D4FF08047984205D0B84203D0A04276
:104F700001D0A84203D122F070064A683243984219
:104F800005D0B84203D0A04201D0A84203D122F4F8
:104F90004074CA6822434C6922F0800222430260B6
:104FA0008A68C2620A688262984201D10969016313
:104FB000012141610169C90703D0016921F00101A3
:104FC0000161F0BD002C01400004004000080040D9
:104FD00010B501F01F030121046A99408C4304625B
:104FE000016A9A401143016210BD10B5846842EA1B
:104FF000032224F47F440A432243826010BD826866
:1050000022F070020A4342F00701816070470000FD
:1050100030B5036A026A22F00102026242688469C2
:1050200024F073050C682C4323F002058B682B4396
:105030000A4DA8420BD123F00805CB6822F4407238
:105040002B434D6923F0040315438A692A434260C8
:10505000846149684163036230BD0000002C014057
:1050600030B5026A036A23F010030362436884695F
:105070000D6824F4E64444EA05248D6822F02002F9
:1050800042EA05120B4DA8420ED1CD6822F08002F3
:1050900042EA05124D6923F4406343EA85038D69B2
:1050A00022F0400243EA85034360846149688163DA
:1050B000026230BD002C014030B5036A026A22F45E
:1050C000807202624268C46923F4007324F073059D
:1050D0000C682C438D6843EA05230C4DA8420ED181
:1050E000CD6823F4006343EA05234D6922F440525E
:1050F00042EA05128D6923F4806342EA0512426098
:10510000C4614968C163036230BD0000002C0140E6
:1051100030B5046A026A22F4805202624268C369AE
:105120000D6823F4E64343EA05238D6824F4005414
:1051300044EA0534064DA84204D14D6922F4804268
:1051400042EA85124260C36149680164046230BD6D
:10515000002C014010B5036A046A24F001040462C3
:10516000846924F0F00444EA021423F00A020A439A
:105170008461026210BD10B5036A046A24F0100451
:105180000462846923F0A00324F4704444EA0232E8
:1051900043EA01118261016210BD10B5406A00212D
:1051A000C185C184FDF7D6FD10BD01680C3151E801
:1051B000002F22F4907241E80023002BF5D1016802
:1051C000143151E8002F22F0010241E80023002BA6
:1051D000F5D1016B012909D101680C3151E8002F8B
:1051E00022F0100241E80023002BF5D1202180F8A5
:1051F000421000210163704708B590F8421022293F
:1052000001D0022008BD82684FF480539A4201D138
:10521000016921B1816A9A421BD04AB10AE0026851
:10522000816A5268C2F308020A80816A891C08E018
:10523000026972B10268526802F07F020A70816AE4
:10524000491C8162C18D491E0904090CC18503D026
:105250001BE002685268F1E70168CA6822F0200288
:10526000CA600168CA6822F48072CA6001684A692B
:1052700022F001024A61202180F84210002141639E
:10528000026B012A03D0FDF793FF002008BD0163E4
:1052900001680C3151E8002F22F0100241E8002390
:1052A000002BF5D101680A68D20602D50A68496860
:1052B0000091818DFDF74DFDE7E7000070B50446D4
:1052C00000680169E26821F44051114301612169DC
:1052D000A0680843616908432168CA6841F20C6309
:1052E0009A430243CA6020684169A26921F440716F
:1052F000114341611E492068884202D1FCF7BEFF7C
:1053000001E0FCF7ABFF00EBC00101EB00126068AD
:1053100064218000B2FBF0F3B3FBF1F36FF01806E9
:105320007343B2FBF0F5B2FBF0F605EB83053223D5
:1053300003EB0515B5FBF1F5B6FBF1F605F0F0054D
:1053400005EB0615B2FBF0F6B2FBF0F0B0FBF1F0A6
:105350006FF01802504306EB800003EB0010B0FB27
:10536000F1F0216800F00F002844886070BD000053
:105370000038014081628285C2850021416422217A
:1053800080F84210016921B10168CA6842F4807254
:10539000CA6001684A6942F001024A610068C16856
:1053A00041F02001C160002070472DE9F843984684
:1053B00017460D460446089E24E0701C22D0FCF7D8
:1053C000ADF9A0EB0800B0421AD8CEB12068C16890
:1053D000490717D5802D15D0402D13D00168C9433A
:1053E00009070FD401680025406800902046FFF7A8
:1053F000DCFE0820606484F840500120BDE8F8839A
:105400000320FBE72068006835EA000004D0002094
:10541000B842D2D00020F1E70120F9E70148FDF7BA
:105420009BBC0000440E00200148FDF795BC000025
:105430008C0E0020FEE700000FB4054B10B503A949
:10544000044A029800F09EF910BC5DF814FB0000BD
:10545000FD620008040200200FB4084B10B504A937
:1054600002AA039800F08EF9044602A9002000F079
:1054700020FD204610BC5DF814FB0000B35E000860
:1054800037B514460846064B6A46214600F07AF9BD
:1054900004466946002000F00CFD20463EBD000099
:1054A000B35E0008490050EAC12018BF04204A0D2D
:1054B00018BF40F0010040F2FF72B2EB515F08BF2D
:1054C00040F00200012808BF052070470907090EB7
:1054D000002804DB00F1E02080F80014704700F0A1
:1054E0000F0000F1E02080F8141D7047004870475D
:1054F000080200202DE9F0414F1E00EBC7010446D1
:10550000D1E9000115461E4637F006020DD02A46A5
:105510003346FBF74FF87F1E04EBC703D3E90023A4
:10552000FAF7A1FF37F00602F1D1022F25D0042FA0
:1055300013D0062F18BFBDE8F0812A463346FBF78B
:1055400039F8D4E90A23FAF78EFF2A463346FBF7E7
:1055500031F8D4E90823FAF786FF2A463346FBF7E9
:1055600029F8D4E90623FAF77EFF2A463346FBF7EB
:1055700021F8D4E90423FAF776FF2A463346FBF7ED
:1055800019F8D4E90223FAF76EFF2A463346FBF7EF
:1055900011F8D4E90023BDE8F041FAF764BF012215
:1055A000FBF751BDFAF75FBF024A00201107FBF776
:1055B0004ABD000001FDFFFF014800687047000080
:1055C0000802002002E008C8121F08C1002AFAD110
:1055D00070477047002001E001C1121F002AFBD173
:1055E0007047000001490860704700000802002071
:1055F0002DE9FF5F82B00021DDE90430020DDDF806
:1056000040B0034318D044F61050A2F2FF32424398
:105610001514119801281FD0A5EB0B00401C5FEA60
:10562000000A4FF000064E4FDFF83891B046504662
:1056300015D5CAF1000413E0119801244AA30128EA
:1056400001D16FEA0B010298119AC0E90031C0E95B
:10565000024206B0BDE8F09FCBF10000DFE7044650
:105660000021404A491842EB0450CDE9001012E0F5
:10567000E00707D032463B4640464946FAF79AFFD4
:105680008046894632463B4610461946FAF792FF55
:1056900006460F466410002CEAD1DDE90401DDE97D
:1056A0000023BAF1000F06DAFAF784FF42464B46B0
:1056B000FAF780FF05E0FAF7EFFF42464B46FAF7AC
:1056C000EBFF04460E460022284BFBF79BF803D85D
:1056D0004FF0FF30014607E00022254B20463146BF
:1056E000FAF7C1FEFBF758FA102409E0002C0ADB98
:1056F0000A220023FBF7E4F8039B30321A55641E9C
:1057000050EA0102F2D1641C039AC4F1110314445B
:10571000119A012A03D0012208430DD10AE008435F
:1057200004D000204FF0110B119072E7A3EB0B0592
:105730006D1E0DE05B4504DD4FF0000205F1010533
:1057400004E003DA4FF00002A5F10105002AECD0D5
:1057500002981199C0E90231C0E9004579E70000DB
:10576000000014400000F03F300000000000F04353
:105770000000E03F30380A2801D2012070470020A5
:10578000704700002DE9FF4F95B09B4689460646BD
:1057900000250FE2252877D100242746F84A012169
:1057A000059400E0044316F8013F203B01FA03F0A2
:1057B0001042F7D130782A2811D06FF02F033078BB
:1057C000A0F13002092A16D8059A44F0020402EB2F
:1057D000820203EB42021044761C0590EFE759F871
:1057E000042B0592002A03DA504244F40054059039
:1057F00044F00204761C30782E2816D116F8010FDA
:1058000044F004042A280DD06FF02F023078A0F164
:105810003003092B09D807EB870302EB4303C718B2
:10582000761CF3E759F8047B761C30786C280FD08F
:1058300006DC4C2817D068280DD06A2814D104E063
:10584000742810D07A280FD10DE044F400140AE037
:1058500044F4801401E044F440147278824202D18E
:1058600004F58014761C761C307866280BD013DC87
:10587000582877D009DC002875D04528F6D046286E
:10588000F4D047281AD19DE118E0632835D0642868
:1058900079D0652812D195E1702873D008DC67288B
:1058A000F1D069286FD06E280DD06F2806D1B5E0F1
:1058B00073282CD0752875D0782874D05A4617993B
:1058C00090476D1C75E1C4F30250022809D00328EB
:1058D0000DD0D9F8001004280DD00D6009F104098D
:1058E00067E1D9F80010EA17C1E90052F6E7D9F8E4
:1058F00000100D80F2E70D70F0E719F8041B8DF829
:10590000001000208DF80100EA46012003E059F85C
:1059100004AB4FF0FF3061074FF0000102D40DE0FF
:1059200008F101018846B9420FDA8045F8DB1AF820
:1059300008100029F4D108E008F1010188468142ED
:10594000FADB1AF808100029F6D105985B46A0EB9F
:10595000080721463846179A00F094FA284400EBCD
:10596000080507E04DE029E10DE01AF8010B5A4661
:1059700017999047B8F10108F7D25B46214638469F
:10598000179A13E142E00A220092C4F302524FF048
:10599000000A022A08D059F804CB032A4FEAEC7116
:1059A0000AD00DE029E02AE009F1070121F0070201
:1059B000F2E802C1914609E00FFA8CFC4FEAEC7163
:1059C000042A03D14FFA8CFC4FEAEC71002907DA64
:1059D0000A460021DCF1000C61EB02012D2202E0FD
:1059E000220504D52B228DF80420012203E0E207D2
:1059F00001D02022F7E7904659E00A2102E0102268
:105A00000DE010214FF0000A00910BE010224FF042
:105A1000000A44F004040827009203E008224FF033
:105A2000000A0092C4F30252022A05D059F804CBAE
:105A30000021032A08D009E009F1070121F007023B
:105A4000F2E802C1914605E01FFA8CFC042A01D15C
:105A50000CF0FF0C4FF00008220728D5702806D064
:105A6000009B83F0100353EA0A0305D00EE04022A6
:105A70008DF80420012208E05CEA010206D0302201
:105A80008DF804208DF8050002229046009B83F0DB
:105A9000080353EA0A030AD15CEA010201D1620752
:105AA00005D530228DF804204FF001087F1E5828BC
:105AB00004D034A003900EA802900DE036A0F9E7C0
:105AC00053466046009AFAF7FBFE84460398825CD0
:105AD0000298401E029002705CEA0100F0D1029828
